{
  "address": "0x1F63F399Ed8d54c4DCf989BE9F0362777f1c4861",
  "abi": [
    {
      "inputs": [],
      "name": "CARTESI_ADDRESS",
      "outputs": [
        {
          "internalType": "address",
          "name": "",
          "type": "address"
        }
      ],
      "stateMutability": "view",
      "type": "function"
    },
    {
      "inputs": [
        {
          "internalType": "uint256",
          "name": "",
          "type": "uint256"
        }
      ],
      "name": "balances",
      "outputs": [
        {
          "internalType": "uint256",
          "name": "",
          "type": "uint256"
        }
      ],
      "stateMutability": "view",
      "type": "function"
    },
    {
      "inputs": [
        {
          "internalType": "uint256",
          "name": "tokenId",
          "type": "uint256"
        }
      ],
      "name": "deposit",
      "outputs": [],
      "stateMutability": "payable",
      "type": "function"
    },
    {
      "inputs": [
        {
          "internalType": "uint256",
          "name": "tokenId",
          "type": "uint256"
        }
      ],
      "name": "getEthInvested",
      "outputs": [
        {
          "internalType": "uint256",
          "name": "",
          "type": "uint256"
        }
      ],
      "stateMutability": "view",
      "type": "function"
    },
    {
      "inputs": [],
      "name": "updateBalance",
      "outputs": [],
      "stateMutability": "nonpayable",
      "type": "function"
    },
    {
      "inputs": [
        {
          "internalType": "uint256",
          "name": "tokenId",
          "type": "uint256"
        }
      ],
      "name": "withdraw",
      "outputs": [],
      "stateMutability": "nonpayable",
      "type": "function"
    }
  ],
  "transactionHash": "0xfa1f4162c3e9c07c3c4c824eee6a905e9ae0b39adac12bf0a9e9a07bacf966b1",
  "args": [],
  "numDeployments": 1,
  "solcInputHash": "43c4d99a062b29d06b4da12423e5f61d",
  "bytecode": "0x608060405234801561001057600080fd5b50610660806100206000396000f3fe6080604052600436106100555760003560e01c80632e1a7d4d1461005a5780632fbf4299146100835780634903b0d1146100ae578063a9559dd7146100eb578063b6b55f2514610102578063ce5b3a4b1461011e575b600080fd5b34801561006657600080fd5b50610081600480360381019061007c9190610399565b61015b565b005b34801561008f57600080fd5b50610098610218565b6040516100a59190610407565b60405180910390f35b3480156100ba57600080fd5b506100d560048036038101906100d09190610399565b610230565b6040516100e29190610431565b60405180910390f35b3480156100f757600080fd5b50610100610248565b005b61011c60048036038101906101179190610399565b6102cc565b005b34801561012a57600080fd5b5061014560048036038101906101409190610399565b610342565b6040516101529190610431565b60405180910390f35b6000806000838152602001908152602001600020549050600081116101b5576040517f08c379a00000000000000000000000000000000000000000000000000000000081526004016101ac906104a9565b60405180910390fd5b6000806000848152602001908152602001600020819055503373ffffffffffffffffffffffffffffffffffffffff166108fc829081150290604051600060405180830381858888f19350505050158015610213573d6000803e3d6000fd5b505050565b73fbd9ca40386a8c632cf0529bbb16b4bedb59a0a081565b60006020528060005260406000206000915090505481565b73fbd9ca40386a8c632cf0529bbb16b4bedb59a0a073ffffffffffffffffffffffffffffffffffffffff163373ffffffffffffffffffffffffffffffffffffffff16146102ca576040517f08c379a00000000000000000000000000000000000000000000000000000000081526004016102c190610515565b60405180910390fd5b565b662386f26fc10000341015610316576040517f08c379a000000000000000000000000000000000000000000000000000000000815260040161030d906105a7565b60405180910390fd5b34600080838152602001908152602001600020600082825461033891906105f6565b9250508190555050565b6000806000838152602001908152602001600020549050919050565b600080fd5b6000819050919050565b61037681610363565b811461038157600080fd5b50565b6000813590506103938161036d565b92915050565b6000602082840312156103af576103ae61035e565b5b60006103bd84828501610384565b91505092915050565b600073ffffffffffffffffffffffffffffffffffffffff82169050919050565b60006103f1826103c6565b9050919050565b610401816103e6565b82525050565b600060208201905061041c60008301846103f8565b92915050565b61042b81610363565b82525050565b60006020820190506104466000830184610422565b92915050565b600082825260208201905092915050565b7f4e6f2062616c616e636520746f2077697468647261772e000000000000000000600082015250565b600061049360178361044c565b915061049e8261045d565b602082019050919050565b600060208201905081810360008301526104c281610486565b9050919050565b7f43616c6c6572206973206e6f7420436172746573690000000000000000000000600082015250565b60006104ff60158361044c565b915061050a826104c9565b602082019050919050565b6000602082019050818103600083015261052e816104f2565b9050919050565b7f4d696e696d756d20696e766573746d656e7420616d6f756e74206e6f74206d6560008201527f742e000000000000000000000000000000000000000000000000000000000000602082015250565b600061059160228361044c565b915061059c82610535565b604082019050919050565b600060208201905081810360008301526105c081610584565b9050919050565b7f4e487b7100000000000000000000000000000000000000000000000000000000600052601160045260246000fd5b600061060182610363565b915061060c83610363565b9250828201905080821115610624576106236105c7565b5b9291505056fea2646970667358221220a7ed8a2b7cab86d493a93c17b953ac692fdbeea3af6c56f30ec154a3f08162b464736f6c63430008110033",
  "devdoc": {
    "kind": "dev",
    "methods": {},
    "version": 1
  },
  "userdoc": {
    "kind": "user",
    "methods": {},
    "version": 1
  },
  "storageLayout": {
    "storage": [
      {
        "astId": 3234,
        "contract": "contracts/TuseVault.sol:TuseVault",
        "label": "balances",
        "offset": 0,
        "slot": "0",
        "type": "t_mapping(t_uint256,t_uint256)"
      }
    ],
    "types": {
      "t_mapping(t_uint256,t_uint256)": {
        "encoding": "mapping",
        "key": "t_uint256",
        "label": "mapping(uint256 => uint256)",
        "numberOfBytes": "32",
        "value": "t_uint256"
      },
      "t_uint256": {
        "encoding": "inplace",
        "label": "uint256",
        "numberOfBytes": "32"
      }
    }
  }
}