{
  "address": "0x6016f36eC97d3230Fd7abaa7899053362458F0A6",
  "abi": [
    {
      "inputs": [
        {
          "internalType": "contract TuseVault",
          "name": "vault",
          "type": "address"
        }
      ],
      "stateMutability": "nonpayable",
      "type": "constructor"
    },
    {
      "anonymous": false,
      "inputs": [
        {
          "indexed": true,
          "internalType": "address",
          "name": "owner",
          "type": "address"
        },
        {
          "indexed": true,
          "internalType": "address",
          "name": "approved",
          "type": "address"
        },
        {
          "indexed": true,
          "internalType": "uint256",
          "name": "tokenId",
          "type": "uint256"
        }
      ],
      "name": "Approval",
      "type": "event"
    },
    {
      "anonymous": false,
      "inputs": [
        {
          "indexed": true,
          "internalType": "address",
          "name": "owner",
          "type": "address"
        },
        {
          "indexed": true,
          "internalType": "address",
          "name": "operator",
          "type": "address"
        },
        {
          "indexed": false,
          "internalType": "bool",
          "name": "approved",
          "type": "bool"
        }
      ],
      "name": "ApprovalForAll",
      "type": "event"
    },
    {
      "anonymous": false,
      "inputs": [
        {
          "indexed": true,
          "internalType": "address",
          "name": "previousOwner",
          "type": "address"
        },
        {
          "indexed": true,
          "internalType": "address",
          "name": "newOwner",
          "type": "address"
        }
      ],
      "name": "OwnershipTransferred",
      "type": "event"
    },
    {
      "anonymous": false,
      "inputs": [
        {
          "indexed": true,
          "internalType": "address",
          "name": "from",
          "type": "address"
        },
        {
          "indexed": true,
          "internalType": "address",
          "name": "to",
          "type": "address"
        },
        {
          "indexed": true,
          "internalType": "uint256",
          "name": "tokenId",
          "type": "uint256"
        }
      ],
      "name": "Transfer",
      "type": "event"
    },
    {
      "inputs": [
        {
          "internalType": "address",
          "name": "to",
          "type": "address"
        },
        {
          "internalType": "uint256",
          "name": "tokenId",
          "type": "uint256"
        }
      ],
      "name": "approve",
      "outputs": [],
      "stateMutability": "nonpayable",
      "type": "function"
    },
    {
      "inputs": [
        {
          "internalType": "address",
          "name": "owner",
          "type": "address"
        }
      ],
      "name": "balanceOf",
      "outputs": [
        {
          "internalType": "uint256",
          "name": "",
          "type": "uint256"
        }
      ],
      "stateMutability": "view",
      "type": "function"
    },
    {
      "inputs": [
        {
          "internalType": "uint256",
          "name": "tokenId",
          "type": "uint256"
        }
      ],
      "name": "getApproved",
      "outputs": [
        {
          "internalType": "address",
          "name": "",
          "type": "address"
        }
      ],
      "stateMutability": "view",
      "type": "function"
    },
    {
      "inputs": [
        {
          "internalType": "address",
          "name": "owner",
          "type": "address"
        },
        {
          "internalType": "address",
          "name": "operator",
          "type": "address"
        }
      ],
      "name": "isApprovedForAll",
      "outputs": [
        {
          "internalType": "bool",
          "name": "",
          "type": "bool"
        }
      ],
      "stateMutability": "view",
      "type": "function"
    },
    {
      "inputs": [],
      "name": "mint",
      "outputs": [],
      "stateMutability": "payable",
      "type": "function"
    },
    {
      "inputs": [],
      "name": "name",
      "outputs": [
        {
          "internalType": "string",
          "name": "",
          "type": "string"
        }
      ],
      "stateMutability": "view",
      "type": "function"
    },
    {
      "inputs": [],
      "name": "owner",
      "outputs": [
        {
          "internalType": "address",
          "name": "",
          "type": "address"
        }
      ],
      "stateMutability": "view",
      "type": "function"
    },
    {
      "inputs": [
        {
          "internalType": "uint256",
          "name": "tokenId",
          "type": "uint256"
        }
      ],
      "name": "ownerOf",
      "outputs": [
        {
          "internalType": "address",
          "name": "",
          "type": "address"
        }
      ],
      "stateMutability": "view",
      "type": "function"
    },
    {
      "inputs": [],
      "name": "renounceOwnership",
      "outputs": [],
      "stateMutability": "nonpayable",
      "type": "function"
    },
    {
      "inputs": [
        {
          "internalType": "address",
          "name": "from",
          "type": "address"
        },
        {
          "internalType": "address",
          "name": "to",
          "type": "address"
        },
        {
          "internalType": "uint256",
          "name": "tokenId",
          "type": "uint256"
        }
      ],
      "name": "safeTransferFrom",
      "outputs": [],
      "stateMutability": "nonpayable",
      "type": "function"
    },
    {
      "inputs": [
        {
          "internalType": "address",
          "name": "from",
          "type": "address"
        },
        {
          "internalType": "address",
          "name": "to",
          "type": "address"
        },
        {
          "internalType": "uint256",
          "name": "tokenId",
          "type": "uint256"
        },
        {
          "internalType": "bytes",
          "name": "data",
          "type": "bytes"
        }
      ],
      "name": "safeTransferFrom",
      "outputs": [],
      "stateMutability": "nonpayable",
      "type": "function"
    },
    {
      "inputs": [
        {
          "internalType": "address",
          "name": "operator",
          "type": "address"
        },
        {
          "internalType": "bool",
          "name": "approved",
          "type": "bool"
        }
      ],
      "name": "setApprovalForAll",
      "outputs": [],
      "stateMutability": "nonpayable",
      "type": "function"
    },
    {
      "inputs": [
        {
          "internalType": "bytes4",
          "name": "interfaceId",
          "type": "bytes4"
        }
      ],
      "name": "supportsInterface",
      "outputs": [
        {
          "internalType": "bool",
          "name": "",
          "type": "bool"
        }
      ],
      "stateMutability": "view",
      "type": "function"
    },
    {
      "inputs": [],
      "name": "symbol",
      "outputs": [
        {
          "internalType": "string",
          "name": "",
          "type": "string"
        }
      ],
      "stateMutability": "view",
      "type": "function"
    },
    {
      "inputs": [
        {
          "internalType": "uint256",
          "name": "tokenId",
          "type": "uint256"
        }
      ],
      "name": "tokenURI",
      "outputs": [
        {
          "internalType": "string",
          "name": "",
          "type": "string"
        }
      ],
      "stateMutability": "view",
      "type": "function"
    },
    {
      "inputs": [
        {
          "internalType": "address",
          "name": "from",
          "type": "address"
        },
        {
          "internalType": "address",
          "name": "to",
          "type": "address"
        },
        {
          "internalType": "uint256",
          "name": "tokenId",
          "type": "uint256"
        }
      ],
      "name": "transferFrom",
      "outputs": [],
      "stateMutability": "nonpayable",
      "type": "function"
    },
    {
      "inputs": [
        {
          "internalType": "address",
          "name": "newOwner",
          "type": "address"
        }
      ],
      "name": "transferOwnership",
      "outputs": [],
      "stateMutability": "nonpayable",
      "type": "function"
    },
    {
      "inputs": [],
      "name": "withdrawMintEarnings",
      "outputs": [],
      "stateMutability": "nonpayable",
      "type": "function"
    }
  ],
  "transactionHash": "0xdf4deb1bc7c13a24ae0bcff1eb3f25eb718f7c9bcf90004d6db2226e9084e0da",
  "args": [
    "0x1F63F399Ed8d54c4DCf989BE9F0362777f1c4861"
  ],
  "numDeployments": 1,
  "solcInputHash": "080c4a4b2010abf3add5055d662dc8e7",
  "bytecode": "0x60a0604052600060085560026009553480156200001b57600080fd5b50604051620034e1380380620034e1833981810160405281019062000041919062000303565b6040518060400160405280600781526020017f547573654e4654000000000000000000000000000000000000000000000000008152506040518060400160405280600481526020017f54555345000000000000000000000000000000000000000000000000000000008152508160009081620000be9190620005af565b508060019081620000d09190620005af565b505050620000f3620000e7620001b760201b60201c565b620001bf60201b60201c565b600073ffffffffffffffffffffffffffffffffffffffff168173ffffffffffffffffffffffffffffffffffffffff160362000165576040517f08c379a00000000000000000000000000000000000000000000000000000000081526004016200015c90620006f7565b60405180910390fd5b80600760006101000a81548173ffffffffffffffffffffffffffffffffffffffff021916908373ffffffffffffffffffffffffffffffffffffffff160217905550611387608081815250505062000719565b600033905090565b6000600660009054906101000a900473ffffffffffffffffffffffffffffffffffffffff16905081600660006101000a81548173ffffffffffffffffffffffffffffffffffffffff021916908373ffffffffffffffffffffffffffffffffffffffff1602179055508173ffffffffffffffffffffffffffffffffffffffff168173ffffffffffffffffffffffffffffffffffffffff167f8be0079c531659141344cd1fd0a4f28419497f9722a3daafe3b4186f6b6457e060405160405180910390a35050565b600080fd5b600073ffffffffffffffffffffffffffffffffffffffff82169050919050565b6000620002b7826200028a565b9050919050565b6000620002cb82620002aa565b9050919050565b620002dd81620002be565b8114620002e957600080fd5b50565b600081519050620002fd81620002d2565b92915050565b6000602082840312156200031c576200031b62000285565b5b60006200032c84828501620002ec565b91505092915050565b600081519050919050565b7f4e487b7100000000000000000000000000000000000000000000000000000000600052604160045260246000fd5b7f4e487b7100000000000000000000000000000000000000000000000000000000600052602260045260246000fd5b60006002820490506001821680620003b757607f821691505b602082108103620003cd57620003cc6200036f565b5b50919050565b60008190508160005260206000209050919050565b60006020601f8301049050919050565b600082821b905092915050565b600060088302620004377fffffffffffffffffffffffffffffffffffffffffffffffffffffffffffffffff82620003f8565b620004438683620003f8565b95508019841693508086168417925050509392505050565b6000819050919050565b6000819050919050565b6000620004906200048a62000484846200045b565b62000465565b6200045b565b9050919050565b6000819050919050565b620004ac836200046f565b620004c4620004bb8262000497565b84845462000405565b825550505050565b600090565b620004db620004cc565b620004e8818484620004a1565b505050565b5b81811015620005105762000504600082620004d1565b600181019050620004ee565b5050565b601f8211156200055f576200052981620003d3565b6200053484620003e8565b8101602085101562000544578190505b6200055c6200055385620003e8565b830182620004ed565b50505b505050565b600082821c905092915050565b6000620005846000198460080262000564565b1980831691505092915050565b60006200059f838362000571565b9150826002028217905092915050565b620005ba8262000335565b67ffffffffffffffff811115620005d657620005d562000340565b5b620005e282546200039e565b620005ef82828562000514565b600060209050601f83116001811462000627576000841562000612578287015190505b6200061e858262000591565b8655506200068e565b601f1984166200063786620003d3565b60005b8281101562000661578489015182556001820191506020850194506020810190506200063a565b868310156200068157848901516200067d601f89168262000571565b8355505b6001600288020188555050505b505050505050565b600082825260208201905092915050565b7f5661756c742063616e2774206265206164647265737320307830210000000000600082015250565b6000620006df601b8362000696565b9150620006ec82620006a7565b602082019050919050565b600060208201905081810360008301526200071281620006d0565b9050919050565b608051612dac6200073560003960006107980152612dac6000f3fe6080604052600436106101095760003560e01c806370a0823111610095578063a22cb46511610064578063a22cb46514610336578063b88d4fde1461035f578063c87b56dd14610388578063e985e9c5146103c5578063f2fde38b1461040257610109565b806370a082311461028c578063715018a6146102c95780638da5cb5b146102e057806395d89b411461030b57610109565b80630e06cbdc116100dc5780630e06cbdc146101dc5780631249c58b146101f357806323b872dd146101fd57806342842e0e146102265780636352211e1461024f57610109565b806301ffc9a71461010e57806306fdde031461014b578063081812fc14610176578063095ea7b3146101b3575b600080fd5b34801561011a57600080fd5b5061013560048036038101906101309190611bc2565b61042b565b6040516101429190611c0a565b60405180910390f35b34801561015757600080fd5b5061016061050d565b60405161016d9190611cb5565b60405180910390f35b34801561018257600080fd5b5061019d60048036038101906101989190611d0d565b61059f565b6040516101aa9190611d7b565b60405180910390f35b3480156101bf57600080fd5b506101da60048036038101906101d59190611dc2565b6105e5565b005b3480156101e857600080fd5b506101f16106fc565b005b6101fb610796565b005b34801561020957600080fd5b50610224600480360381019061021f9190611e02565b610925565b005b34801561023257600080fd5b5061024d60048036038101906102489190611e02565b610985565b005b34801561025b57600080fd5b5061027660048036038101906102719190611d0d565b6109a5565b6040516102839190611d7b565b60405180910390f35b34801561029857600080fd5b506102b360048036038101906102ae9190611e55565b610a2b565b6040516102c09190611e91565b60405180910390f35b3480156102d557600080fd5b506102de610ae2565b005b3480156102ec57600080fd5b506102f5610af6565b6040516103029190611d7b565b60405180910390f35b34801561031757600080fd5b50610320610b20565b60405161032d9190611cb5565b60405180910390f35b34801561034257600080fd5b5061035d60048036038101906103589190611ed8565b610bb2565b005b34801561036b57600080fd5b506103866004803603810190610381919061204d565b610bc8565b005b34801561039457600080fd5b506103af60048036038101906103aa9190611d0d565b610c2a565b6040516103bc9190611cb5565b60405180910390f35b3480156103d157600080fd5b506103ec60048036038101906103e791906120d0565b610d65565b6040516103f99190611c0a565b60405180910390f35b34801561040e57600080fd5b5061042960048036038101906104249190611e55565b610df9565b005b60007f80ac58cd000000000000000000000000000000000000000000000000000000007bffffffffffffffffffffffffffffffffffffffffffffffffffffffff1916827bffffffffffffffffffffffffffffffffffffffffffffffffffffffff191614806104f657507f5b5e139f000000000000000000000000000000000000000000000000000000007bffffffffffffffffffffffffffffffffffffffffffffffffffffffff1916827bffffffffffffffffffffffffffffffffffffffffffffffffffffffff1916145b80610506575061050582610e7c565b5b9050919050565b60606000805461051c9061213f565b80601f01602080910402602001604051908101604052809291908181526020018280546105489061213f565b80156105955780601f1061056a57610100808354040283529160200191610595565b820191906000526020600020905b81548152906001019060200180831161057857829003601f168201915b5050505050905090565b60006105aa82610ee6565b6004600083815260200190815260200160002060009054906101000a900473ffffffffffffffffffffffffffffffffffffffff169050919050565b60006105f0826109a5565b90508073ffffffffffffffffffffffffffffffffffffffff168373ffffffffffffffffffffffffffffffffffffffff1603610660576040517f08c379a0000000000000000000000000000000000000000000000000000000008152600401610657906121e2565b60405180910390fd5b8073ffffffffffffffffffffffffffffffffffffffff1661067f610f31565b73ffffffffffffffffffffffffffffffffffffffff1614806106ae57506106ad816106a8610f31565b610d65565b5b6106ed576040517f08c379a00000000000000000000000000000000000000000000000000000000081526004016106e490612274565b60405180910390fd5b6106f78383610f39565b505050565b610704610ff2565b60004790506000811161074c576040517f08c379a000000000000000000000000000000000000000000000000000000000815260040161074390612306565b60405180910390fd5b3373ffffffffffffffffffffffffffffffffffffffff166108fc829081150290604051600060405180830381858888f19350505050158015610792573d6000803e3d6000fd5b5050565b7f000000000000000000000000000000000000000000000000000000000000000060085411156107fb576040517f08c379a00000000000000000000000000000000000000000000000000000000081526004016107f290612398565b60405180910390fd5b662386f26fc10000341015610845576040517f08c379a000000000000000000000000000000000000000000000000000000000815260040161083c9061242a565b60405180910390fd5b6008600081548092919061085890612479565b919050555061086933600854611070565b600060646009543461087b91906124c1565b6108859190612532565b9050600760009054906101000a900473ffffffffffffffffffffffffffffffffffffffff1673ffffffffffffffffffffffffffffffffffffffff1663b6b55f2582346108d19190612563565b6008546040518363ffffffff1660e01b81526004016108f09190611e91565b6000604051808303818588803b15801561090957600080fd5b505af115801561091d573d6000803e3d6000fd5b505050505050565b610936610930610f31565b8261108e565b610975576040517f08c379a000000000000000000000000000000000000000000000000000000000815260040161096c90612609565b60405180910390fd5b610980838383611123565b505050565b6109a083838360405180602001604052806000815250610bc8565b505050565b6000806109b18361141c565b9050600073ffffffffffffffffffffffffffffffffffffffff168173ffffffffffffffffffffffffffffffffffffffff1603610a22576040517f08c379a0000000000000000000000000000000000000000000000000000000008152600401610a1990612675565b60405180910390fd5b80915050919050565b60008073ffffffffffffffffffffffffffffffffffffffff168273ffffffffffffffffffffffffffffffffffffffff1603610a9b576040517f08c379a0000000000000000000000000000000000000000000000000000000008152600401610a9290612707565b60405180910390fd5b600360008373ffffffffffffffffffffffffffffffffffffffff1673ffffffffffffffffffffffffffffffffffffffff168152602001908152602001600020549050919050565b610aea610ff2565b610af46000611459565b565b6000600660009054906101000a900473ffffffffffffffffffffffffffffffffffffffff16905090565b606060018054610b2f9061213f565b80601f0160208091040260200160405190810160405280929190818152602001828054610b5b9061213f565b8015610ba85780601f10610b7d57610100808354040283529160200191610ba8565b820191906000526020600020905b815481529060010190602001808311610b8b57829003601f168201915b5050505050905090565b610bc4610bbd610f31565b838361151f565b5050565b610bd9610bd3610f31565b8361108e565b610c18576040517f08c379a0000000000000000000000000000000000000000000000000000000008152600401610c0f90612609565b60405180910390fd5b610c248484848461168b565b50505050565b6060610c35826116e7565b610c74576040517f08c379a0000000000000000000000000000000000000000000000000000000008152600401610c6b90612799565b60405180910390fd5b6000600760009054906101000a900473ffffffffffffffffffffffffffffffffffffffff1673ffffffffffffffffffffffffffffffffffffffff1663ce5b3a4b846040518263ffffffff1660e01b8152600401610cd19190611e91565b602060405180830381865afa158015610cee573d6000803e3d6000fd5b505050506040513d601f19601f82011682018060405250810190610d1291906127ce565b905060606000821115610d3f57604051806080016040528060508152602001612cd7605091399050610d5b565b604051806080016040528060508152602001612d276050913990505b8092505050919050565b6000600560008473ffffffffffffffffffffffffffffffffffffffff1673ffffffffffffffffffffffffffffffffffffffff16815260200190815260200160002060008373ffffffffffffffffffffffffffffffffffffffff1673ffffffffffffffffffffffffffffffffffffffff16815260200190815260200160002060009054906101000a900460ff16905092915050565b610e01610ff2565b600073ffffffffffffffffffffffffffffffffffffffff168173ffffffffffffffffffffffffffffffffffffffff1603610e70576040517f08c379a0000000000000000000000000000000000000000000000000000000008152600401610e679061286d565b60405180910390fd5b610e7981611459565b50565b60007f01ffc9a7000000000000000000000000000000000000000000000000000000007bffffffffffffffffffffffffffffffffffffffffffffffffffffffff1916827bffffffffffffffffffffffffffffffffffffffffffffffffffffffff1916149050919050565b610eef816116e7565b610f2e576040517f08c379a0000000000000000000000000000000000000000000000000000000008152600401610f2590612675565b60405180910390fd5b50565b600033905090565b816004600083815260200190815260200160002060006101000a81548173ffffffffffffffffffffffffffffffffffffffff021916908373ffffffffffffffffffffffffffffffffffffffff160217905550808273ffffffffffffffffffffffffffffffffffffffff16610fac836109a5565b73ffffffffffffffffffffffffffffffffffffffff167f8c5be1e5ebec7d5bd14f71427d1e84f3dd0314c0f7b2291e5b200ac8c7c3b92560405160405180910390a45050565b610ffa610f31565b73ffffffffffffffffffffffffffffffffffffffff16611018610af6565b73ffffffffffffffffffffffffffffffffffffffff161461106e576040517f08c379a0000000000000000000000000000000000000000000000000000000008152600401611065906128d9565b60405180910390fd5b565b61108a828260405180602001604052806000815250611728565b5050565b60008061109a836109a5565b90508073ffffffffffffffffffffffffffffffffffffffff168473ffffffffffffffffffffffffffffffffffffffff1614806110dc57506110db8185610d65565b5b8061111a57508373ffffffffffffffffffffffffffffffffffffffff166111028461059f565b73ffffffffffffffffffffffffffffffffffffffff16145b91505092915050565b8273ffffffffffffffffffffffffffffffffffffffff16611143826109a5565b73ffffffffffffffffffffffffffffffffffffffff1614611199576040517f08c379a00000000000000000000000000000000000000000000000000000000081526004016111909061296b565b60405180910390fd5b600073ffffffffffffffffffffffffffffffffffffffff168273ffffffffffffffffffffffffffffffffffffffff1603611208576040517f08c379a00000000000000000000000000000000000000000000000000000000081526004016111ff906129fd565b60405180910390fd5b6112158383836001611783565b8273ffffffffffffffffffffffffffffffffffffffff16611235826109a5565b73ffffffffffffffffffffffffffffffffffffffff161461128b576040517f08c379a00000000000000000000000000000000000000000000000000000000081526004016112829061296b565b60405180910390fd5b6004600082815260200190815260200160002060006101000a81549073ffffffffffffffffffffffffffffffffffffffff02191690556001600360008573ffffffffffffffffffffffffffffffffffffffff1673ffffffffffffffffffffffffffffffffffffffff168152602001908152602001600020600082825403925050819055506001600360008473ffffffffffffffffffffffffffffffffffffffff1673ffffffffffffffffffffffffffffffffffffffff16815260200190815260200160002060008282540192505081905550816002600083815260200190815260200160002060006101000a81548173ffffffffffffffffffffffffffffffffffffffff021916908373ffffffffffffffffffffffffffffffffffffffff160217905550808273ffffffffffffffffffffffffffffffffffffffff168473ffffffffffffffffffffffffffffffffffffffff167fddf252ad1be2c89b69c2b068fc378daa952ba7f163c4a11628f55a4df523b3ef60405160405180910390a46114178383836001611789565b505050565b60006002600083815260200190815260200160002060009054906101000a900473ffffffffffffffffffffffffffffffffffffffff169050919050565b6000600660009054906101000a900473ffffffffffffffffffffffffffffffffffffffff16905081600660006101000a81548173ffffffffffffffffffffffffffffffffffffffff021916908373ffffffffffffffffffffffffffffffffffffffff1602179055508173ffffffffffffffffffffffffffffffffffffffff168173ffffffffffffffffffffffffffffffffffffffff167f8be0079c531659141344cd1fd0a4f28419497f9722a3daafe3b4186f6b6457e060405160405180910390a35050565b8173ffffffffffffffffffffffffffffffffffffffff168373ffffffffffffffffffffffffffffffffffffffff160361158d576040517f08c379a000000000000000000000000000000000000000000000000000000000815260040161158490612a69565b60405180910390fd5b80600560008573ffffffffffffffffffffffffffffffffffffffff1673ffffffffffffffffffffffffffffffffffffffff16815260200190815260200160002060008473ffffffffffffffffffffffffffffffffffffffff1673ffffffffffffffffffffffffffffffffffffffff16815260200190815260200160002060006101000a81548160ff0219169083151502179055508173ffffffffffffffffffffffffffffffffffffffff168373ffffffffffffffffffffffffffffffffffffffff167f17307eab39ab6107e8899845ad3d59bd9653f200f220920489ca2b5937696c318360405161167e9190611c0a565b60405180910390a3505050565b611696848484611123565b6116a28484848461178f565b6116e1576040517f08c379a00000000000000000000000000000000000000000000000000000000081526004016116d890612afb565b60405180910390fd5b50505050565b60008073ffffffffffffffffffffffffffffffffffffffff166117098361141c565b73ffffffffffffffffffffffffffffffffffffffff1614159050919050565b6117328383611916565b61173f600084848461178f565b61177e576040517f08c379a000000000000000000000000000000000000000000000000000000000815260040161177590612afb565b60405180910390fd5b505050565b50505050565b50505050565b60006117b08473ffffffffffffffffffffffffffffffffffffffff16611b33565b15611909578373ffffffffffffffffffffffffffffffffffffffff1663150b7a026117d9610f31565b8786866040518563ffffffff1660e01b81526004016117fb9493929190612b70565b6020604051808303816000875af192505050801561183757506040513d601f19601f820116820180604052508101906118349190612bd1565b60015b6118b9573d8060008114611867576040519150601f19603f3d011682016040523d82523d6000602084013e61186c565b606091505b5060008151036118b1576040517f08c379a00000000000000000000000000000000000000000000000000000000081526004016118a890612afb565b60405180910390fd5b805181602001fd5b63150b7a0260e01b7bffffffffffffffffffffffffffffffffffffffffffffffffffffffff1916817bffffffffffffffffffffffffffffffffffffffffffffffffffffffff19161491505061190e565b600190505b949350505050565b600073ffffffffffffffffffffffffffffffffffffffff168273ffffffffffffffffffffffffffffffffffffffff1603611985576040517f08c379a000000000000000000000000000000000000000000000000000000000815260040161197c90612c4a565b60405180910390fd5b61198e816116e7565b156119ce576040517f08c379a00000000000000000000000000000000000000000000000000000000081526004016119c590612cb6565b60405180910390fd5b6119dc600083836001611783565b6119e5816116e7565b15611a25576040517f08c379a0000000000000000000000000000000000000000000000000000000008152600401611a1c90612cb6565b60405180910390fd5b6001600360008473ffffffffffffffffffffffffffffffffffffffff1673ffffffffffffffffffffffffffffffffffffffff16815260200190815260200160002060008282540192505081905550816002600083815260200190815260200160002060006101000a81548173ffffffffffffffffffffffffffffffffffffffff021916908373ffffffffffffffffffffffffffffffffffffffff160217905550808273ffffffffffffffffffffffffffffffffffffffff16600073ffffffffffffffffffffffffffffffffffffffff167fddf252ad1be2c89b69c2b068fc378daa952ba7f163c4a11628f55a4df523b3ef60405160405180910390a4611b2f600083836001611789565b5050565b6000808273ffffffffffffffffffffffffffffffffffffffff163b119050919050565b6000604051905090565b600080fd5b600080fd5b60007fffffffff0000000000000000000000000000000000000000000000000000000082169050919050565b611b9f81611b6a565b8114611baa57600080fd5b50565b600081359050611bbc81611b96565b92915050565b600060208284031215611bd857611bd7611b60565b5b6000611be684828501611bad565b91505092915050565b60008115159050919050565b611c0481611bef565b82525050565b6000602082019050611c1f6000830184611bfb565b92915050565b600081519050919050565b600082825260208201905092915050565b60005b83811015611c5f578082015181840152602081019050611c44565b60008484015250505050565b6000601f19601f8301169050919050565b6000611c8782611c25565b611c918185611c30565b9350611ca1818560208601611c41565b611caa81611c6b565b840191505092915050565b60006020820190508181036000830152611ccf8184611c7c565b905092915050565b6000819050919050565b611cea81611cd7565b8114611cf557600080fd5b50565b600081359050611d0781611ce1565b92915050565b600060208284031215611d2357611d22611b60565b5b6000611d3184828501611cf8565b91505092915050565b600073ffffffffffffffffffffffffffffffffffffffff82169050919050565b6000611d6582611d3a565b9050919050565b611d7581611d5a565b82525050565b6000602082019050611d906000830184611d6c565b92915050565b611d9f81611d5a565b8114611daa57600080fd5b50565b600081359050611dbc81611d96565b92915050565b60008060408385031215611dd957611dd8611b60565b5b6000611de785828601611dad565b9250506020611df885828601611cf8565b9150509250929050565b600080600060608486031215611e1b57611e1a611b60565b5b6000611e2986828701611dad565b9350506020611e3a86828701611dad565b9250506040611e4b86828701611cf8565b9150509250925092565b600060208284031215611e6b57611e6a611b60565b5b6000611e7984828501611dad565b91505092915050565b611e8b81611cd7565b82525050565b6000602082019050611ea66000830184611e82565b92915050565b611eb581611bef565b8114611ec057600080fd5b50565b600081359050611ed281611eac565b92915050565b60008060408385031215611eef57611eee611b60565b5b6000611efd85828601611dad565b9250506020611f0e85828601611ec3565b9150509250929050565b600080fd5b600080fd5b7f4e487b7100000000000000000000000000000000000000000000000000000000600052604160045260246000fd5b611f5a82611c6b565b810181811067ffffffffffffffff82111715611f7957611f78611f22565b5b80604052505050565b6000611f8c611b56565b9050611f988282611f51565b919050565b600067ffffffffffffffff821115611fb857611fb7611f22565b5b611fc182611c6b565b9050602081019050919050565b82818337600083830152505050565b6000611ff0611feb84611f9d565b611f82565b90508281526020810184848401111561200c5761200b611f1d565b5b612017848285611fce565b509392505050565b600082601f83011261203457612033611f18565b5b8135612044848260208601611fdd565b91505092915050565b6000806000806080858703121561206757612066611b60565b5b600061207587828801611dad565b945050602061208687828801611dad565b935050604061209787828801611cf8565b925050606085013567ffffffffffffffff8111156120b8576120b7611b65565b5b6120c48782880161201f565b91505092959194509250565b600080604083850312156120e7576120e6611b60565b5b60006120f585828601611dad565b925050602061210685828601611dad565b9150509250929050565b7f4e487b7100000000000000000000000000000000000000000000000000000000600052602260045260246000fd5b6000600282049050600182168061215757607f821691505b60208210810361216a57612169612110565b5b50919050565b7f4552433732313a20617070726f76616c20746f2063757272656e74206f776e6560008201527f7200000000000000000000000000000000000000000000000000000000000000602082015250565b60006121cc602183611c30565b91506121d782612170565b604082019050919050565b600060208201905081810360008301526121fb816121bf565b9050919050565b7f4552433732313a20617070726f76652063616c6c6572206973206e6f7420746f60008201527f6b656e206f776e6572206f7220617070726f76656420666f7220616c6c000000602082015250565b600061225e603d83611c30565b915061226982612202565b604082019050919050565b6000602082019050818103600083015261228d81612251565b9050919050565b7f547573654e46543a204e6f206561726e696e677320746f20776974686472617760008201527f2e00000000000000000000000000000000000000000000000000000000000000602082015250565b60006122f0602183611c30565b91506122fb82612294565b604082019050919050565b6000602082019050818103600083015261231f816122e3565b9050919050565b7f547573654e46543a20416c6c20746f6b656e732068617665206265656e206d6960008201527f6e74656400000000000000000000000000000000000000000000000000000000602082015250565b6000612382602483611c30565b915061238d82612326565b604082019050919050565b600060208201905081810360008301526123b181612375565b9050919050565b7f547573654e46543a204d696e696d756d20696e766573746d656e7420616d6f7560008201527f6e74206e6f74206d65742e000000000000000000000000000000000000000000602082015250565b6000612414602b83611c30565b915061241f826123b8565b604082019050919050565b6000602082019050818103600083015261244381612407565b9050919050565b7f4e487b7100000000000000000000000000000000000000000000000000000000600052601160045260246000fd5b600061248482611cd7565b91507fffffffffffffffffffffffffffffffffffffffffffffffffffffffffffffffff82036124b6576124b561244a565b5b600182019050919050565b60006124cc82611cd7565b91506124d783611cd7565b92508282026124e581611cd7565b915082820484148315176124fc576124fb61244a565b5b5092915050565b7f4e487b7100000000000000000000000000000000000000000000000000000000600052601260045260246000fd5b600061253d82611cd7565b915061254883611cd7565b92508261255857612557612503565b5b828204905092915050565b600061256e82611cd7565b915061257983611cd7565b92508282039050818111156125915761259061244a565b5b92915050565b7f4552433732313a2063616c6c6572206973206e6f7420746f6b656e206f776e6560008201527f72206f7220617070726f76656400000000000000000000000000000000000000602082015250565b60006125f3602d83611c30565b91506125fe82612597565b604082019050919050565b60006020820190508181036000830152612622816125e6565b9050919050565b7f4552433732313a20696e76616c696420746f6b656e2049440000000000000000600082015250565b600061265f601883611c30565b915061266a82612629565b602082019050919050565b6000602082019050818103600083015261268e81612652565b9050919050565b7f4552433732313a2061646472657373207a65726f206973206e6f74206120766160008201527f6c6964206f776e65720000000000000000000000000000000000000000000000602082015250565b60006126f1602983611c30565b91506126fc82612695565b604082019050919050565b60006020820190508181036000830152612720816126e4565b9050919050565b7f4552433732314d657461646174613a2055524920717565727920666f72206e6f60008201527f6e6578697374656e7420746f6b656e0000000000000000000000000000000000602082015250565b6000612783602f83611c30565b915061278e82612727565b604082019050919050565b600060208201905081810360008301526127b281612776565b9050919050565b6000815190506127c881611ce1565b92915050565b6000602082840312156127e4576127e3611b60565b5b60006127f2848285016127b9565b91505092915050565b7f4f776e61626c653a206e6577206f776e657220697320746865207a65726f206160008201527f6464726573730000000000000000000000000000000000000000000000000000602082015250565b6000612857602683611c30565b9150612862826127fb565b604082019050919050565b600060208201905081810360008301526128868161284a565b9050919050565b7f4f776e61626c653a2063616c6c6572206973206e6f7420746865206f776e6572600082015250565b60006128c3602083611c30565b91506128ce8261288d565b602082019050919050565b600060208201905081810360008301526128f2816128b6565b9050919050565b7f4552433732313a207472616e736665722066726f6d20696e636f72726563742060008201527f6f776e6572000000000000000000000000000000000000000000000000000000602082015250565b6000612955602583611c30565b9150612960826128f9565b604082019050919050565b6000602082019050818103600083015261298481612948565b9050919050565b7f4552433732313a207472616e7366657220746f20746865207a65726f2061646460008201527f7265737300000000000000000000000000000000000000000000000000000000602082015250565b60006129e7602483611c30565b91506129f28261298b565b604082019050919050565b60006020820190508181036000830152612a16816129da565b9050919050565b7f4552433732313a20617070726f766520746f2063616c6c657200000000000000600082015250565b6000612a53601983611c30565b9150612a5e82612a1d565b602082019050919050565b60006020820190508181036000830152612a8281612a46565b9050919050565b7f4552433732313a207472616e7366657220746f206e6f6e20455243373231526560008201527f63656976657220696d706c656d656e7465720000000000000000000000000000602082015250565b6000612ae5603283611c30565b9150612af082612a89565b604082019050919050565b60006020820190508181036000830152612b1481612ad8565b9050919050565b600081519050919050565b600082825260208201905092915050565b6000612b4282612b1b565b612b4c8185612b26565b9350612b5c818560208601611c41565b612b6581611c6b565b840191505092915050565b6000608082019050612b856000830187611d6c565b612b926020830186611d6c565b612b9f6040830185611e82565b8181036060830152612bb18184612b37565b905095945050505050565b600081519050612bcb81611b96565b92915050565b600060208284031215612be757612be6611b60565b5b6000612bf584828501612bbc565b91505092915050565b7f4552433732313a206d696e7420746f20746865207a65726f2061646472657373600082015250565b6000612c34602083611c30565b9150612c3f82612bfe565b602082019050919050565b60006020820190508181036000830152612c6381612c27565b9050919050565b7f4552433732313a20746f6b656e20616c7265616479206d696e74656400000000600082015250565b6000612ca0601c83611c30565b9150612cab82612c6a565b602082019050919050565b60006020820190508181036000830152612ccf81612c93565b905091905056fe68747470733a2f2f676174657761792e70696e6174612e636c6f75642f697066732f516d50575536414e5a716150387063673759416e7051355276664177314735725356686464347037524a5047577a68747470733a2f2f676174657761792e70696e6174612e636c6f75642f697066732f516d51727978726b626e644c594a56456b6e66585879444779664d51525a52657259444c576e363269545333324ea264697066735822122037dff676af2112508dee35ad49f031eef0e47bd8b0403f517031b7e5c9f023e564736f6c63430008110033",
  "devdoc": {
    "kind": "dev",
    "methods": {
      "approve(address,uint256)": {
        "details": "See {IERC721-approve}."
      },
      "balanceOf(address)": {
        "details": "See {IERC721-balanceOf}."
      },
      "getApproved(uint256)": {
        "details": "See {IERC721-getApproved}."
      },
      "isApprovedForAll(address,address)": {
        "details": "See {IERC721-isApprovedForAll}."
      },
      "name()": {
        "details": "See {IERC721Metadata-name}."
      },
      "owner()": {
        "details": "Returns the address of the current owner."
      },
      "ownerOf(uint256)": {
        "details": "See {IERC721-ownerOf}."
      },
      "renounceOwnership()": {
        "details": "Leaves the contract without owner. It will not be possible to call `onlyOwner` functions anymore. Can only be called by the current owner. NOTE: Renouncing ownership will leave the contract without an owner, thereby removing any functionality that is only available to the owner."
      },
      "safeTransferFrom(address,address,uint256)": {
        "details": "See {IERC721-safeTransferFrom}."
      },
      "safeTransferFrom(address,address,uint256,bytes)": {
        "details": "See {IERC721-safeTransferFrom}."
      },
      "setApprovalForAll(address,bool)": {
        "details": "See {IERC721-setApprovalForAll}."
      },
      "supportsInterface(bytes4)": {
        "details": "See {IERC165-supportsInterface}."
      },
      "symbol()": {
        "details": "See {IERC721Metadata-symbol}."
      },
      "tokenURI(uint256)": {
        "details": "See {IERC721Metadata-tokenURI}."
      },
      "transferFrom(address,address,uint256)": {
        "details": "See {IERC721-transferFrom}."
      },
      "transferOwnership(address)": {
        "details": "Transfers ownership of the contract to a new account (`newOwner`). Can only be called by the current owner."
      }
    },
    "version": 1
  },
  "userdoc": {
    "kind": "user",
    "methods": {},
    "version": 1
  },
  "storageLayout": {
    "storage": [
      {
        "astId": 138,
        "contract": "contracts/TuseNFT.sol:TuseNFT",
        "label": "_name",
        "offset": 0,
        "slot": "0",
        "type": "t_string_storage"
      },
      {
        "astId": 140,
        "contract": "contracts/TuseNFT.sol:TuseNFT",
        "label": "_symbol",
        "offset": 0,
        "slot": "1",
        "type": "t_string_storage"
      },
      {
        "astId": 144,
        "contract": "contracts/TuseNFT.sol:TuseNFT",
        "label": "_owners",
        "offset": 0,
        "slot": "2",
        "type": "t_mapping(t_uint256,t_address)"
      },
      {
        "astId": 148,
        "contract": "contracts/TuseNFT.sol:TuseNFT",
        "label": "_balances",
        "offset": 0,
        "slot": "3",
        "type": "t_mapping(t_address,t_uint256)"
      },
      {
        "astId": 152,
        "contract": "contracts/TuseNFT.sol:TuseNFT",
        "label": "_tokenApprovals",
        "offset": 0,
        "slot": "4",
        "type": "t_mapping(t_uint256,t_address)"
      },
      {
        "astId": 158,
        "contract": "contracts/TuseNFT.sol:TuseNFT",
        "label": "_operatorApprovals",
        "offset": 0,
        "slot": "5",
        "type": "t_mapping(t_address,t_mapping(t_address,t_bool))"
      },
      {
        "astId": 7,
        "contract": "contracts/TuseNFT.sol:TuseNFT",
        "label": "_owner",
        "offset": 0,
        "slot": "6",
        "type": "t_address"
      },
      {
        "astId": 3018,
        "contract": "contracts/TuseNFT.sol:TuseNFT",
        "label": "_vault",
        "offset": 0,
        "slot": "7",
        "type": "t_contract(TuseVault)3278"
      },
      {
        "astId": 3021,
        "contract": "contracts/TuseNFT.sol:TuseNFT",
        "label": "_currentTokenId",
        "offset": 0,
        "slot": "8",
        "type": "t_uint256"
      },
      {
        "astId": 3026,
        "contract": "contracts/TuseNFT.sol:TuseNFT",
        "label": "_mintFee",
        "offset": 0,
        "slot": "9",
        "type": "t_uint256"
      }
    ],
    "types": {
      "t_address": {
        "encoding": "inplace",
        "label": "address",
        "numberOfBytes": "20"
      },
      "t_bool": {
        "encoding": "inplace",
        "label": "bool",
        "numberOfBytes": "1"
      },
      "t_contract(TuseVault)3278": {
        "encoding": "inplace",
        "label": "contract TuseVault",
        "numberOfBytes": "20"
      },
      "t_mapping(t_address,t_bool)": {
        "encoding": "mapping",
        "key": "t_address",
        "label": "mapping(address => bool)",
        "numberOfBytes": "32",
        "value": "t_bool"
      },
      "t_mapping(t_address,t_mapping(t_address,t_bool))": {
        "encoding": "mapping",
        "key": "t_address",
        "label": "mapping(address => mapping(address => bool))",
        "numberOfBytes": "32",
        "value": "t_mapping(t_address,t_bool)"
      },
      "t_mapping(t_address,t_uint256)": {
        "encoding": "mapping",
        "key": "t_address",
        "label": "mapping(address => uint256)",
        "numberOfBytes": "32",
        "value": "t_uint256"
      },
      "t_mapping(t_uint256,t_address)": {
        "encoding": "mapping",
        "key": "t_uint256",
        "label": "mapping(uint256 => address)",
        "numberOfBytes": "32",
        "value": "t_address"
      },
      "t_string_storage": {
        "encoding": "bytes",
        "label": "string",
        "numberOfBytes": "32"
      },
      "t_uint256": {
        "encoding": "inplace",
        "label": "uint256",
        "numberOfBytes": "32"
      }
    }
  }
}